:100000000C9463000C948B000C948B000C9468038C
:100010000C9468030C9468030C948B000C948B0074
:100020000C948B000C948B000C948B000C948B0024
:100030000C948B000C948B000C948B000C948B0014
:100040000C94C6020C948B000C9436030C94100391
:100050000C948B000C948B000C948B000C948B00F4
:100060000C948B000C948B000000000024002700EF
:100070002A0000000008000201000003040700003D
:1000800000000000000000000000230026002900FE
:1000900000000000250028002B00040404040404D0
:1000A0000404020202020202030303030303010227
:1000B00004081020408001020408102001020408F6
:1000C0001020E003DE0511241FBECFEFD8E0DEBF15
:1000D000CDBF11E0A0E0B1E0EAE1FCE002C0059094
:1000E0000D92AA33B107D9F722E0AAE3B1E001C02B
:1000F0001D92A334B207E1F710E0C2E6D0E004C0DD
:100100002197FE010E94FA05C136D107C9F70E9466
:100110008B040C9400060C94000090E0FC01EE5857
:10012000FF4F2491FC01E255FF4F3491FC01E6564C
:10013000FF4FE491EE23C9F0222339F0233001F17F
:10014000A8F4213019F1223029F1F0E0EE0FFF1F61
:10015000E057FF4FA591B4918FB7F894EC916111DE
:1001600026C030953E233C938FBF08952730A9F0D9
:100170002830C9F0243049F7809180008F7D03C07A
:10018000809180008F7780938000DFCF84B58F7758
:1001900084BDDBCF84B58F7DFBCF8091B0008F779E
:1001A0008093B000D2CF8091B0008F7DF9CF3E2BED
:1001B000DACFCF93DF9390E0FC01E255FF4F24911B
:1001C00086569F4FFC0184918823D1F090E0880FE0
:1001D000991FFC01E859FF4FA591B491FC01E0572C
:1001E000FF4FC591D49161110EC09FB7F8948C91C7
:1001F000E22FE0958E238C932881E223E8839FBF32
:10020000DF91CF9108958FB7F894EC91E22BEC93A6
:100210008FBFF6CFAF92BF92CF92DF92EF92FF9255
:100220000F931F93CF93DF936C017B018B01040F1E
:10023000151FEB015E01AE18BF08C017D10759F0BA
:100240006991D601ED91FC910190F081E02DC601FC
:100250000995892B79F7C501DF91CF911F910F91F6
:10026000FF90EF90DF90CF90BF90AF900895FC018A
:10027000538D448D252F30E0842F90E0821B930B0B
:10028000541710F0CF96089501970895FC01918DB1
:10029000828D981761F0A28DAE0FBF2FB11D5D96B4
:1002A0008C91928D9F5F9F73928F90E008958FEF56
:1002B0009FEF0895FC01918D828D981731F0828D0A
:1002C000E80FF11D858D90E008958FEF9FEF089561
:1002D000FC01918D228D892F90E0805C9F4F821BC5
:1002E00091098F739927089587E891E00E9468012A
:1002F00021E0892B09F420E0822F089580E090E02E
:10030000892B29F00E94740181110C94000008953A
:10031000FC01A48DA80FB92FB11DA35ABF4F2C917A
:10032000848D90E001968F739927848FA689B78971
:100330002C93A089B1898C91837080648C93938D68
:10034000848D981306C00288F389E02D80818F7D0B
:1003500080830895EF92FF920F931F93CF93DF93C3
:10036000EC0181E0888F9B8D8C8D98131AC0E889F1
:10037000F989808185FF15C09FB7F894EE89FF89C0
:100380006083E889F98980818370806480839FBF5E
:1003900081E090E0DF91CF911F910F91FF90EF905E
:1003A0000895F62E0B8D10E00F5F1F4F0F7311276E
:1003B000E02E8C8D8E110CC00FB607FCFACFE889A9
:1003C000F989808185FFF5CFCE010E948801F1CFA8
:1003D000EB8DEC0FFD2FF11DE35AFF4FF0829FB71D
:1003E000F8940B8FEA89FB8980818062CFCFCF930D
:1003F000DF93EC01888D8823B9F0AA89BB89E8894D
:10040000F9898C9185FD03C0808186FD0DC00FB6F2
:1004100007FCF7CF8C9185FFF2CF808185FFEDCF70
:10042000CE010E948801E9CFDF91CF9108952091FC
:100430007C0130917D012817390771F490917A0180
:1004400080917B01981741F0E0917A01F0E0E65C41
:10045000FE4F808190E008958FEF9FEF08950895FB
:10046000EF92FF920F931F93CF93DF93DC015C9683
:10047000ED90FC905D97E114F10479F481E090E057
:1004800013969C938E93129790E080E0DF91CF912A
:100490001F910F91FF90EF9008955196ED91FC916F
:1004A000529750968C915097982F90950FB75E96D3
:1004B0002C915E97122F127021FD6095F894208187
:1004C000112319F1282B2083E7012197F1F728E068
:1004D000462F50E0308160FF1AC0382B3083E7018F
:1004E0002197F1F7BA0175956795215089F7112386
:1004F00081F08081892380830FBF5C968D919C91D0
:100500000197F1F781E090E0C1CF2923DCCF3923B7
:10051000E5CF9081892BEFCF20917C0130917D0137
:100520002817390761F480917B0120917A0190E0CE
:10053000805C9F4F821B91098F739927089590E0EB
:1005400080E0089520917C0130917D0128173907C2
:10055000B9F490917A0180917B01981789F0E0912C
:100560007A01F0E0E65CFE4F808120917A0130E074
:100570002F5F3F4F2F73332720937A0190E0089528
:100580008FEF9FEF089590E080E008951F920F9203
:100590000FB60F9211242F933F938F939F93AF9396
:1005A000BF938091830190918401A0918501B091C6
:1005B00086013091820123E0230F2D3758F50196F3
:1005C000A11DB11D2093820180938301909384012A
:1005D000A0938501B093860180917E0190917F0167
:1005E000A0918001B09181010196A11DB11D809360
:1005F0007E0190937F01A0938001B0938101BF9110
:10060000AF919F918F913F912F910F900FBE0F90BF
:100610001F90189526E8230F0296A11DB11DD2CF79
:100620001F920F920FB60F9211242F933F934F9367
:100630005F936F937F938F939F93AF93BF93EF934A
:10064000FF9387E891E00E948801FF91EF91BF91AD
:10065000AF919F918F917F916F915F914F913F915A
:100660002F910F900FBE0F901F9018951F920F9211
:100670000FB60F9211242F938F939F93EF93FF93B5
:10068000E0919701F09198018081E0919D01F091B6
:100690009E0182FD1BC090818091A0018F5F8F73AE
:1006A0002091A101821741F0E091A001F0E0E9570B
:1006B000FE4F958F8093A001FF91EF919F918F91B5
:1006C0002F910F900FBE0F901F9018958081F4CF3F
:1006D0001F920F920FB60F9211242F933F934F93B7
:1006E0005F936F937F938F939F93AF93BF93EF939A
:1006F000FF93E0917C01F0917D01309749F0A68550
:10070000B7858585968D91FF14C09C918923A1F4AE
:10071000FF91EF91BF91AF919F918F917F916F91D9
:100720005F914F913F912F910F900FBE0F901F90AF
:1007300018959C91892361F7A389B4899C91858937
:10074000809589238C93868997890197F1F7608D2D
:10075000718DA685B785558538E020E0CB010197DE
:10076000F1F7822F90E095958795282F4C9145239E
:1007700009F02068315091F7868D81FD2095809198
:100780007B0190E001968F73992730917A01381799
:1007900099F0A0917B01B0E0A65CBE4F2C938093B2
:1007A0007B01828D938D0197F1F7A389B4898C9198
:1007B0009589892B8C93ACCF868D8160868FF1CF04
:1007C00010928A011092890188EE93E0A0E0B0E0D7
:1007D00080938B0190938C01A0938D01B0938E0137
:1007E00024E031E0309388012093870125EC30E04C
:1007F000309394012093930124EC30E030939601E0
:100800002093950120EC30E03093980120939701DC
:1008100021EC30E030939A012093990122EC30E0F2
:1008200030939C0120939B0126EC30E030939E0195
:1008300020939D011092A0011092A1011092A2019B
:100840001092A30110922702109226028093280290
:1008500090932902A0932A02B0932B0286E191E0A3
:10086000909325028093240210923B0210923A0248
:1008700010923D0210923C0210923F0210923E02F2
:100880001092410210924002609142026E7F6D7F91
:10089000609342026695617081E068278BE00E9458
:1008A0008D0061E08BE00E94D900E9EBF0E0E4917B
:1008B000E0933402E5EAF0E0E491F0E0EE0FFF1F90
:1008C000E057FF4F859194919093360280933502C3
:1008D00060E08AE00E94D9008091420281FD04C05C
:1008E00061E08AE00E948D008AE080933002E8EBAC
:1008F000F0E0E491E0933102E4EAF0E0E491F0E02A
:10090000EE0FFF1FEA57FF4F8591949190933302AA
:10091000809332020895789484B5826084BD84B552
:10092000816084BD85B5826085BD85B5816085BDEA
:1009300080916E00816080936E00109281008091A2
:10094000810082608093810080918100816080932A
:100950008100809180008160809380008091B1004F
:1009600084608093B1008091B00081608093B0007A
:1009700080917A00846080937A0080917A0082600E
:1009800080937A0080917A00816080937A008091D0
:100990007A00806880937A001092C10061E089E05B
:1009A0000E94D90061E089E00E948D00E0919701EA
:1009B000F091980182E08083E0919301F09194019D
:1009C0001082E0919501F09196018FEC8083109256
:1009D0009F01E0919B01F0919C0186E08083E09172
:1009E0009901F0919A01808180618083E091990161
:1009F000F0919A01808188608083E0919901F09163
:100A00009A01808180688083E0919901F0919A0138
:100A100080818F7D808342E150E064E271E087E86D
:100A200091E00E940A0142E050E067E371E087E84C
:100A300091E00E940A0110923F0210923E02109231
:100A40003D0210923C0210923B0210923A0285E65F
:100A500090E0909341028093400290913002963151
:100A600008F047C021E230E030933B0220933A0285
:100A700023E630E030933D0220933C0222E430E054
:100A800030933F0220933E022091680084E098302A
:100A900048F031E09E3008F430E081E001C0880F7A
:100AA0003A95EAF7822B809368002DE630E0983083
:100AB00050F02BE630E09E3030F02CE630E09631FE
:100AC00010F030E020E03093380220933702292FD5
:100AD00030E0983008F065C081E001C0880F9A9539
:100AE000EAF7809339028091400290914102019788
:100AF000F1F780913E0290913F02892B49F1E091FC
:100B00007C01F0917D0182E0E432F80709F1309731
:100B100039F0A389B4899C918589809589238C9328
:100B2000809142028E7F8093420210927B0110924C
:100B30007A0184E292E090937D0180937C01E091C0
:100B40003702F0913802808190913902892B80839D
:100B5000C0E0D0E084E292E00E948C02892B49F050
:100B600084E292E00E94A202682F87E891E00E944E
:100B7000AA0187E891E00E946801892B49F087E883
:100B800091E00E944601682F84E292E00E943002C8
:100B9000209701F30E9474018823E1F20E94000073
:100BA000D9CF9E3040F42850310981E001C0880F30
:100BB0002A95EAF796CF2E503109F7CF86E191E0DA
:100BC000909325028093240280917C0190917D0175
:100BD0008452924071F4E0913702F0913802908192
:100BE0008091390280958923808310927D01109233
:100BF0007C010895EE0FFF1F0590F491E02D0994FC
:100C000010E0C2E6D0E004C0FE010E94FA05219681
:0A0C1000C336D107C9F7F894FFCFEF
:100C1A0000000000AA010A013701F7016801460134
:100C2A005A010000000030020A01C3022F028C029E
:100C3A00A2021702456E74657220415420636F6DDB
:0A0C4A006D616E64733A000D0A003C
:00000001FF
